{
  "contractName": "SupplyChain",
  "abi": [
    {
      "anonymous": false,
      "inputs": [
        {
          "indexed": false,
          "internalType": "address",
          "name": "entityId",
          "type": "address"
        },
        {
          "indexed": false,
          "internalType": "string",
          "name": "entityRole",
          "type": "string"
        }
      ],
      "name": "AddEntity",
      "type": "event"
    },
    {
      "anonymous": false,
      "inputs": [
        {
          "indexed": false,
          "internalType": "uint256",
          "name": "productId",
          "type": "uint256"
        },
        {
          "indexed": true,
          "internalType": "address",
          "name": "manufacturer",
          "type": "address"
        }
      ],
      "name": "AddProduct",
      "type": "event"
    },
    {
      "anonymous": false,
      "inputs": [
        {
          "indexed": true,
          "internalType": "address",
          "name": "issuer",
          "type": "address"
        },
        {
          "indexed": false,
          "internalType": "uint256[]",
          "name": "transactions",
          "type": "uint256[]"
        }
      ],
      "name": "GetTransactionsForEntity",
      "type": "event"
    },
    {
      "anonymous": false,
      "inputs": [
        {
          "indexed": true,
          "internalType": "address",
          "name": "issuer",
          "type": "address"
        },
        {
          "indexed": true,
          "internalType": "address",
          "name": "receiver",
          "type": "address"
        },
        {
          "indexed": false,
          "internalType": "uint256",
          "name": "transactionId",
          "type": "uint256"
        }
      ],
      "name": "IssueTransaction",
      "type": "event"
    },
    {
      "inputs": [],
      "name": "MAX_CERTIFICATIONS",
      "outputs": [
        {
          "internalType": "uint256",
          "name": "",
          "type": "uint256"
        }
      ],
      "stateMutability": "view",
      "type": "function"
    },
    {
      "inputs": [
        {
          "internalType": "address",
          "name": "",
          "type": "address"
        }
      ],
      "name": "entities",
      "outputs": [
        {
          "internalType": "address",
          "name": "id",
          "type": "address"
        },
        {
          "internalType": "enum SupplyChain.Role",
          "name": "role",
          "type": "uint8"
        }
      ],
      "stateMutability": "view",
      "type": "function"
    },
    {
      "inputs": [
        {
          "internalType": "uint256",
          "name": "",
          "type": "uint256"
        }
      ],
      "name": "productIds",
      "outputs": [
        {
          "internalType": "uint256",
          "name": "",
          "type": "uint256"
        }
      ],
      "stateMutability": "view",
      "type": "function"
    },
    {
      "inputs": [
        {
          "internalType": "uint256",
          "name": "",
          "type": "uint256"
        }
      ],
      "name": "products",
      "outputs": [
        {
          "internalType": "uint256",
          "name": "id",
          "type": "uint256"
        },
        {
          "internalType": "string",
          "name": "name",
          "type": "string"
        },
        {
          "internalType": "address",
          "name": "manufacturer",
          "type": "address"
        }
      ],
      "stateMutability": "view",
      "type": "function"
    },
    {
      "inputs": [
        {
          "internalType": "uint256",
          "name": "",
          "type": "uint256"
        }
      ],
      "name": "transactionIds",
      "outputs": [
        {
          "internalType": "uint256",
          "name": "",
          "type": "uint256"
        }
      ],
      "stateMutability": "view",
      "type": "function"
    },
    {
      "inputs": [
        {
          "internalType": "uint256",
          "name": "",
          "type": "uint256"
        }
      ],
      "name": "transactions",
      "outputs": [
        {
          "internalType": "uint256",
          "name": "id",
          "type": "uint256"
        },
        {
          "components": [
            {
              "internalType": "address",
              "name": "id",
              "type": "address"
            },
            {
              "internalType": "enum SupplyChain.Role",
              "name": "role",
              "type": "uint8"
            },
            {
              "internalType": "uint256[]",
              "name": "transactionIds",
              "type": "uint256[]"
            }
          ],
          "internalType": "struct SupplyChain.Entity",
          "name": "issuer",
          "type": "tuple"
        },
        {
          "components": [
            {
              "internalType": "address",
              "name": "id",
              "type": "address"
            },
            {
              "internalType": "enum SupplyChain.Role",
              "name": "role",
              "type": "uint8"
            },
            {
              "internalType": "uint256[]",
              "name": "transactionIds",
              "type": "uint256[]"
            }
          ],
          "internalType": "struct SupplyChain.Entity",
          "name": "receiver",
          "type": "tuple"
        },
        {
          "internalType": "bytes",
          "name": "signature",
          "type": "bytes"
        },
        {
          "internalType": "enum SupplyChain.ProductStatus",
          "name": "status",
          "type": "uint8"
        }
      ],
      "stateMutability": "view",
      "type": "function"
    },
    {
      "inputs": [
        {
          "internalType": "address",
          "name": "_id",
          "type": "address"
        },
        {
          "internalType": "string",
          "name": "_role",
          "type": "string"
        }
      ],
      "name": "addEntity",
      "outputs": [],
      "stateMutability": "nonpayable",
      "type": "function"
    },
    {
      "inputs": [
        {
          "internalType": "string",
          "name": "name",
          "type": "string"
        },
        {
          "internalType": "address",
          "name": "manufacturer",
          "type": "address"
        },
        {
          "internalType": "uint256",
          "name": "semiProductId",
          "type": "uint256"
        }
      ],
      "name": "addProduct",
      "outputs": [
        {
          "internalType": "uint256",
          "name": "",
          "type": "uint256"
        }
      ],
      "stateMutability": "nonpayable",
      "type": "function"
    },
    {
      "inputs": [
        {
          "internalType": "address",
          "name": "_issuer",
          "type": "address"
        },
        {
          "internalType": "address",
          "name": "_receiver",
          "type": "address"
        },
        {
          "internalType": "string",
          "name": "_status",
          "type": "string"
        },
        {
          "internalType": "uint256",
          "name": "productId",
          "type": "uint256"
        },
        {
          "internalType": "bytes",
          "name": "signature",
          "type": "bytes"
        }
      ],
      "name": "issueTransaction",
      "outputs": [
        {
          "internalType": "uint256",
          "name": "",
          "type": "uint256"
        }
      ],
      "stateMutability": "nonpayable",
      "type": "function"
    },
    {
      "inputs": [
        {
          "internalType": "bytes32",
          "name": "message",
          "type": "bytes32"
        },
        {
          "internalType": "uint256",
          "name": "id",
          "type": "uint256"
        },
        {
          "internalType": "address",
          "name": "issuer",
          "type": "address"
        }
      ],
      "name": "isMatchingSignature",
      "outputs": [
        {
          "internalType": "bool",
          "name": "",
          "type": "bool"
        }
      ],
      "stateMutability": "view",
      "type": "function"
    },
    {
      "inputs": [
        {
          "internalType": "address",
          "name": "_issuer",
          "type": "address"
        }
      ],
      "name": "getTransactionIdsForEntity",
      "outputs": [
        {
          "internalType": "uint256[]",
          "name": "",
          "type": "uint256[]"
        }
      ],
      "stateMutability": "view",
      "type": "function"
    },
    {
      "inputs": [
        {
          "internalType": "uint256",
          "name": "productId",
          "type": "uint256"
        }
      ],
      "name": "getSemiProductId",
      "outputs": [
        {
          "internalType": "uint256",
          "name": "id",
          "type": "uint256"
        }
      ],
      "stateMutability": "view",
      "type": "function"
    }
  ],
  "bytecode": "0x608060405234801561001057600080fd5b50612e7c806100206000396000f3fe608060405234801561001057600080fd5b50600436106100b45760003560e01c8063a14a8ef411610071578063a14a8ef4146101ce578063a156c76c146101fe578063b5bad46d1461022e578063b7af37691461024a578063cb51bba91461027a578063e36f8dc5146102aa576100b4565b80631d8ee48a146100b95780632eba2fae146100ea57806345194c071461011a5780634851a01d1461014a5780637acc0b20146101685780639ace38c21461019a575b600080fd5b6100d360048036038101906100ce9190611c22565b6102da565b6040516100e1929190611cd5565b60405180910390f35b61010460048036038101906100ff9190611f1b565b61032b565b6040516101119190611fdd565b60405180910390f35b610134600480360381019061012f919061202e565b610861565b604051610141919061209c565b60405180910390f35b610152610be9565b60405161015f9190611fdd565b60405180910390f35b610182600480360381019061017d91906120b7565b610bee565b6040516101919392919061216c565b60405180910390f35b6101b460048036038101906101af91906120b7565b610cc0565b6040516101c5959493929190612373565b60405180910390f35b6101e860048036038101906101e391906120b7565b610f71565b6040516101f59190611fdd565b60405180910390f35b610218600480360381019061021391906123db565b61115e565b6040516102259190611fdd565b60405180910390f35b6102486004803603810190610243919061244a565b6113b5565b005b610264600480360381019061025f9190611c22565b611572565b6040516102719190612515565b60405180910390f35b610294600480360381019061028f91906120b7565b611808565b6040516102a19190611fdd565b60405180910390f35b6102c460048036038101906102bf91906120b7565b61182c565b6040516102d19190611fdd565b60405180910390f35b60046020528060005260406000206000915090508060000160009054906101000a900473ffffffffffffffffffffffffffffffffffffffff16908060000160149054906101000a900460ff16905082565b600080600460008873ffffffffffffffffffffffffffffffffffffffff1673ffffffffffffffffffffffffffffffffffffffff1681526020019081526020016000206040518060600160405290816000820160009054906101000a900473ffffffffffffffffffffffffffffffffffffffff1673ffffffffffffffffffffffffffffffffffffffff1673ffffffffffffffffffffffffffffffffffffffff1681526020016000820160149054906101000a900460ff1660058111156103f3576103f2611c5e565b5b600581111561040557610404611c5e565b5b81526020016001820180548060200260200160405190810160405280929190818152602001828054801561045857602002820191906000526020600020905b815481526020019060010190808311610444575b50505050508152505090506000600460008873ffffffffffffffffffffffffffffffffffffffff1673ffffffffffffffffffffffffffffffffffffffff1681526020019081526020016000206040518060600160405290816000820160009054906101000a900473ffffffffffffffffffffffffffffffffffffffff1673ffffffffffffffffffffffffffffffffffffffff1673ffffffffffffffffffffffffffffffffffffffff1681526020016000820160149054906101000a900460ff16600581111561052a57610529611c5e565b5b600581111561053c5761053b611c5e565b5b81526020016001820180548060200260200160405190810160405280929190818152602001828054801561058f57602002820191906000526020600020905b81548152602001906001019080831161057b575b505050505081525050905060006001905060008080549050905060006040518060a001604052808381526020018681526020018581526020018881526020018460048111156105e1576105e0611c5e565b5b81525090506000808054905090806001815401808255809150506001900390600052602060002001600090919091909150558060036000600160008054905061062a9190612566565b81526020019081526020016000206000820151816000015560208201518160010160008201518160000160006101000a81548173ffffffffffffffffffffffffffffffffffffffff021916908373ffffffffffffffffffffffffffffffffffffffff16021790555060208201518160000160146101000a81548160ff021916908360058111156106bd576106bc611c5e565b5b021790555060408201518160010190805190602001906106de929190611b46565b50505060408201518160030160008201518160000160006101000a81548173ffffffffffffffffffffffffffffffffffffffff021916908373ffffffffffffffffffffffffffffffffffffffff16021790555060208201518160000160146101000a81548160ff0219169083600581111561075c5761075b611c5e565b5b0217905550604082015181600101908051906020019061077d929190611b46565b505050606082015181600501908161079591906127a6565b5060808201518160060160006101000a81548160ff021916908360048111156107c1576107c0611c5e565b5b02179055509050508973ffffffffffffffffffffffffffffffffffffffff168b73ffffffffffffffffffffffffffffffffffffffff167fd329b48a8940b32890813a527cd07ec2e4fa94b5a2754e57a1b871a1eeb33b32600160008054905061082a9190612566565b6040516108379190611fdd565b60405180910390a360016000805490506108519190612566565b9550505050505095945050505050565b600080600360008581526020019081526020016000206040518060a001604052908160008201548152602001600182016040518060600160405290816000820160009054906101000a900473ffffffffffffffffffffffffffffffffffffffff1673ffffffffffffffffffffffffffffffffffffffff1673ffffffffffffffffffffffffffffffffffffffff1681526020016000820160149054906101000a900460ff16600581111561091757610916611c5e565b5b600581111561092957610928611c5e565b5b81526020016001820180548060200260200160405190810160405280929190818152602001828054801561097c57602002820191906000526020600020905b815481526020019060010190808311610968575b5050505050815250508152602001600382016040518060600160405290816000820160009054906101000a900473ffffffffffffffffffffffffffffffffffffffff1673ffffffffffffffffffffffffffffffffffffffff1673ffffffffffffffffffffffffffffffffffffffff1681526020016000820160149054906101000a900460ff166005811115610a1457610a13611c5e565b5b6005811115610a2657610a25611c5e565b5b815260200160018201805480602002602001604051908101604052809291908181526020018280548015610a7957602002820191906000526020600020905b815481526020019060010190808311610a65575b5050505050815250508152602001600582018054610a96906125c9565b80601f0160208091040260200160405190810160405280929190818152602001828054610ac2906125c9565b8015610b0f5780601f10610ae457610100808354040283529160200191610b0f565b820191906000526020600020905b815481529060010190602001808311610af257829003601f168201915b505050505081526020016006820160009054906101000a900460ff166004811115610b3d57610b3c611c5e565b5b6004811115610b4f57610b4e611c5e565b5b8152505090508273ffffffffffffffffffffffffffffffffffffffff1681602001516000015173ffffffffffffffffffffffffffffffffffffffff1614610b9557600080fd5b6000610ba5868360600151611850565b905081602001516000015173ffffffffffffffffffffffffffffffffffffffff168173ffffffffffffffffffffffffffffffffffffffff1614925050509392505050565b601481565b6002602052806000526040600020600091509050806000015490806001018054610c17906125c9565b80601f0160208091040260200160405190810160405280929190818152602001828054610c43906125c9565b8015610c905780601f10610c6557610100808354040283529160200191610c90565b820191906000526020600020905b815481529060010190602001808311610c7357829003601f168201915b5050505050908060020160009054906101000a900473ffffffffffffffffffffffffffffffffffffffff16905083565b6003602052806000526040600020600091509050806000015490806001016040518060600160405290816000820160009054906101000a900473ffffffffffffffffffffffffffffffffffffffff1673ffffffffffffffffffffffffffffffffffffffff1673ffffffffffffffffffffffffffffffffffffffff1681526020016000820160149054906101000a900460ff166005811115610d6457610d63611c5e565b5b6005811115610d7657610d75611c5e565b5b815260200160018201805480602002602001604051908101604052809291908181526020018280548015610dc957602002820191906000526020600020905b815481526020019060010190808311610db5575b50505050508152505090806003016040518060600160405290816000820160009054906101000a900473ffffffffffffffffffffffffffffffffffffffff1673ffffffffffffffffffffffffffffffffffffffff1673ffffffffffffffffffffffffffffffffffffffff1681526020016000820160149054906101000a900460ff166005811115610e5d57610e5c611c5e565b5b6005811115610e6f57610e6e611c5e565b5b815260200160018201805480602002602001604051908101604052809291908181526020018280548015610ec257602002820191906000526020600020905b815481526020019060010190808311610eae575b50505050508152505090806005018054610edb906125c9565b80601f0160208091040260200160405190810160405280929190818152602001828054610f07906125c9565b8015610f545780601f10610f2957610100808354040283529160200191610f54565b820191906000526020600020905b815481529060010190602001808311610f3757829003601f168201915b5050505050908060060160009054906101000a900460ff16905085565b600080600260008481526020019081526020016000206040518060a001604052908160008201548152602001600182018054610fac906125c9565b80601f0160208091040260200160405190810160405280929190818152602001828054610fd8906125c9565b80156110255780601f10610ffa57610100808354040283529160200191611025565b820191906000526020600020905b81548152906001019060200180831161100857829003601f168201915b505050505081526020016002820160009054906101000a900473ffffffffffffffffffffffffffffffffffffffff1673ffffffffffffffffffffffffffffffffffffffff1673ffffffffffffffffffffffffffffffffffffffff168152602001600382018054806020026020016040519081016040528092919081815260200182805480156110d357602002820191906000526020600020905b8154815260200190600101908083116110bf575b505050505081526020016004820180548060200260200160405190810160405280929190818152602001828054801561112b57602002820191906000526020600020905b815481526020019060010190808311611117575b5050505050815250509050806060015160008151811061114e5761114d612878565b5b6020026020010151915050919050565b600080601467ffffffffffffffff81111561117c5761117b611d19565b5b6040519080825280602002602001820160405280156111aa5781602001602082028036833780820191505090505b5090506000601467ffffffffffffffff8111156111ca576111c9611d19565b5b6040519080825280602002602001820160405280156111f85781602001602082028036833780820191505090505b509050600060018054905090506064851461122f57848260008151811061122257611221612878565b5b6020026020010181815250505b60006040518060a001604052808381526020018981526020018873ffffffffffffffffffffffffffffffffffffffff16815260200184815260200185815250905080600260008481526020019081526020016000206000820151816000015560208201518160010190816112a39190612902565b5060408201518160020160006101000a81548173ffffffffffffffffffffffffffffffffffffffff021916908373ffffffffffffffffffffffffffffffffffffffff1602179055506060820151816003019080519060200190611307929190611b46565b506080820151816004019080519060200190611324929190611b46565b509050506001829080600181540180825580915050600190039060005260206000200160009091909190915055806040015173ffffffffffffffffffffffffffffffffffffffff167fd7c359567456324a8078c27767aacc83dc3fb81e22b35cbdbc493572e68d05eb826000015160405161139f9190611fdd565b60405180910390a2819450505050509392505050565b60006113c082611928565b90506000601467ffffffffffffffff8111156113df576113de611d19565b5b60405190808252806020026020018201604052801561140d5781602001602082028036833780820191505090505b509050600060405180606001604052808673ffffffffffffffffffffffffffffffffffffffff16815260200184600581111561144c5761144b611c5e565b5b815260200183815250905080600460008773ffffffffffffffffffffffffffffffffffffffff1673ffffffffffffffffffffffffffffffffffffffff16815260200190815260200160002060008201518160000160006101000a81548173ffffffffffffffffffffffffffffffffffffffff021916908373ffffffffffffffffffffffffffffffffffffffff16021790555060208201518160000160146101000a81548160ff0219169083600581111561150957611508611c5e565b5b0217905550604082015181600101908051906020019061152a929190611b46565b509050507ff5a37da00f0e4029ee2682b1919ee55d7e6f9d7492237aad9bd1aea7d53d48748160000151856040516115639291906129d4565b60405180910390a15050505050565b60606000600460008473ffffffffffffffffffffffffffffffffffffffff1673ffffffffffffffffffffffffffffffffffffffff1681526020019081526020016000206040518060600160405290816000820160009054906101000a900473ffffffffffffffffffffffffffffffffffffffff1673ffffffffffffffffffffffffffffffffffffffff1673ffffffffffffffffffffffffffffffffffffffff1681526020016000820160149054906101000a900460ff16600581111561163b5761163a611c5e565b5b600581111561164d5761164c611c5e565b5b8152602001600182018054806020026020016040519081016040528092919081815260200182805480156116a057602002820191906000526020600020905b81548152602001906001019080831161168c575b50505050508152505090506000601467ffffffffffffffff8111156116c8576116c7611d19565b5b6040519080825280602002602001820160405280156116f65781602001602082028036833780820191505090505b5090506000808080549050905060005b818110156117fb57846000015173ffffffffffffffffffffffffffffffffffffffff16600360008084815481106117405761173f612878565b5b9060005260206000200154815260200190815260200160002060010160000160009054906101000a900473ffffffffffffffffffffffffffffffffffffffff1673ffffffffffffffffffffffffffffffffffffffff16036117e857600081815481106117af576117ae612878565b5b90600052602060002001548484815181106117cd576117cc612878565b5b60200260200101818152505082806117e490612a04565b9350505b80806117f390612a04565b915050611706565b5082945050505050919050565b6001818154811061181857600080fd5b906000526020600020016000915090505481565b6000818154811061183c57600080fd5b906000526020600020016000915090505481565b60008060008061185f85611b14565b92509250925060006040518060400160405280601c81526020017f19457468657265756d205369676e6564204d6573736167653a0a3332000000008152509050600081886040516020016118b4929190612aa9565b604051602081830303815290604052805190602001209050600181868686604051600081526020016040526040516118ef9493929190612afc565b6020604051602081039080840390855afa158015611911573d6000803e3d6000fd5b505050602060405103519550505050505092915050565b6000808260405160200161193c9190612b7d565b604051602081830303815290604052805190602001209050600060405160200161196590612be0565b604051602081830303815290604052805190602001209050600060405160200161198e90612c41565b60405160208183030381529060405280519060200120905060006040516020016119b790612ca2565b60405160208183030381529060405280519060200120905060006040516020016119e090612d03565b6040516020818303038152906040528051906020012090506000604051602001611a0990612d64565b6040516020818303038152906040528051906020012090506000604051602001611a3290612dc5565b604051602081830303815290604052805190602001209050858703611a61576000975050505050505050611b0f565b848703611a78576001975050505050505050611b0f565b838703611a8f576002975050505050505050611b0f565b828703611aa6576003975050505050505050611b0f565b818703611abd576004975050505050505050611b0f565b808703611ad4576005975050505050505050611b0f565b6040517f08c379a0000000000000000000000000000000000000000000000000000000008152600401611b0690612e26565b60405180910390fd5b919050565b60008060006041845114611b2757600080fd5b6020840151915060408401519050606084015160001a92509193909250565b828054828255906000526020600020908101928215611b82579160200282015b82811115611b81578251825591602001919060010190611b66565b5b509050611b8f9190611b93565b5090565b5b80821115611bac576000816000905550600101611b94565b5090565b6000604051905090565b600080fd5b600080fd5b600073ffffffffffffffffffffffffffffffffffffffff82169050919050565b6000611bef82611bc4565b9050919050565b611bff81611be4565b8114611c0a57600080fd5b50565b600081359050611c1c81611bf6565b92915050565b600060208284031215611c3857611c37611bba565b5b6000611c4684828501611c0d565b91505092915050565b611c5881611be4565b82525050565b7f4e487b7100000000000000000000000000000000000000000000000000000000600052602160045260246000fd5b60068110611c9e57611c9d611c5e565b5b50565b6000819050611caf82611c8d565b919050565b6000611cbf82611ca1565b9050919050565b611ccf81611cb4565b82525050565b6000604082019050611cea6000830185611c4f565b611cf76020830184611cc6565b9392505050565b600080fd5b600080fd5b6000601f19601f8301169050919050565b7f4e487b7100000000000000000000000000000000000000000000000000000000600052604160045260246000fd5b611d5182611d08565b810181811067ffffffffffffffff82111715611d7057611d6f611d19565b5b80604052505050565b6000611d83611bb0565b9050611d8f8282611d48565b919050565b600067ffffffffffffffff821115611daf57611dae611d19565b5b611db882611d08565b9050602081019050919050565b82818337600083830152505050565b6000611de7611de284611d94565b611d79565b905082815260208101848484011115611e0357611e02611d03565b5b611e0e848285611dc5565b509392505050565b600082601f830112611e2b57611e2a611cfe565b5b8135611e3b848260208601611dd4565b91505092915050565b6000819050919050565b611e5781611e44565b8114611e6257600080fd5b50565b600081359050611e7481611e4e565b92915050565b600067ffffffffffffffff821115611e9557611e94611d19565b5b611e9e82611d08565b9050602081019050919050565b6000611ebe611eb984611e7a565b611d79565b905082815260208101848484011115611eda57611ed9611d03565b5b611ee5848285611dc5565b509392505050565b600082601f830112611f0257611f01611cfe565b5b8135611f12848260208601611eab565b91505092915050565b600080600080600060a08688031215611f3757611f36611bba565b5b6000611f4588828901611c0d565b9550506020611f5688828901611c0d565b945050604086013567ffffffffffffffff811115611f7757611f76611bbf565b5b611f8388828901611e16565b9350506060611f9488828901611e65565b925050608086013567ffffffffffffffff811115611fb557611fb4611bbf565b5b611fc188828901611eed565b9150509295509295909350565b611fd781611e44565b82525050565b6000602082019050611ff26000830184611fce565b92915050565b6000819050919050565b61200b81611ff8565b811461201657600080fd5b50565b60008135905061202881612002565b92915050565b60008060006060848603121561204757612046611bba565b5b600061205586828701612019565b935050602061206686828701611e65565b925050604061207786828701611c0d565b9150509250925092565b60008115159050919050565b61209681612081565b82525050565b60006020820190506120b1600083018461208d565b92915050565b6000602082840312156120cd576120cc611bba565b5b60006120db84828501611e65565b91505092915050565b600081519050919050565b600082825260208201905092915050565b60005b8381101561211e578082015181840152602081019050612103565b8381111561212d576000848401525b50505050565b600061213e826120e4565b61214881856120ef565b9350612158818560208601612100565b61216181611d08565b840191505092915050565b60006060820190506121816000830186611fce565b81810360208301526121938185612133565b90506121a26040830184611c4f565b949350505050565b6121b381611be4565b82525050565b6121c281611cb4565b82525050565b600081519050919050565b600082825260208201905092915050565b6000819050602082019050919050565b6121fd81611e44565b82525050565b600061220f83836121f4565b60208301905092915050565b6000602082019050919050565b6000612233826121c8565b61223d81856121d3565b9350612248836121e4565b8060005b838110156122795781516122608882612203565b975061226b8361221b565b92505060018101905061224c565b5085935050505092915050565b600060608301600083015161229e60008601826121aa565b5060208301516122b160208601826121b9565b50604083015184820360408601526122c98282612228565b9150508091505092915050565b600081519050919050565b600082825260208201905092915050565b60006122fd826122d6565b61230781856122e1565b9350612317818560208601612100565b61232081611d08565b840191505092915050565b6005811061233c5761233b611c5e565b5b50565b600081905061234d8261232b565b919050565b600061235d8261233f565b9050919050565b61236d81612352565b82525050565b600060a0820190506123886000830188611fce565b818103602083015261239a8187612286565b905081810360408301526123ae8186612286565b905081810360608301526123c281856122f2565b90506123d16080830184612364565b9695505050505050565b6000806000606084860312156123f4576123f3611bba565b5b600084013567ffffffffffffffff81111561241257612411611bbf565b5b61241e86828701611e16565b935050602061242f86828701611c0d565b925050604061244086828701611e65565b9150509250925092565b6000806040838503121561246157612460611bba565b5b600061246f85828601611c0d565b925050602083013567ffffffffffffffff8111156124905761248f611bbf565b5b61249c85828601611e16565b9150509250929050565b600082825260208201905092915050565b60006124c2826121c8565b6124cc81856124a6565b93506124d7836121e4565b8060005b838110156125085781516124ef8882612203565b97506124fa8361221b565b9250506001810190506124db565b5085935050505092915050565b6000602082019050818103600083015261252f81846124b7565b905092915050565b7f4e487b7100000000000000000000000000000000000000000000000000000000600052601160045260246000fd5b600061257182611e44565b915061257c83611e44565b92508282101561258f5761258e612537565b5b828203905092915050565b7f4e487b7100000000000000000000000000000000000000000000000000000000600052602260045260246000fd5b600060028204905060018216806125e157607f821691505b6020821081036125f4576125f361259a565b5b50919050565b60008190508160005260206000209050919050565b60006020601f8301049050919050565b600082821b905092915050565b60006008830261265c7fffffffffffffffffffffffffffffffffffffffffffffffffffffffffffffffff8261261f565b612666868361261f565b95508019841693508086168417925050509392505050565b6000819050919050565b60006126a361269e61269984611e44565b61267e565b611e44565b9050919050565b6000819050919050565b6126bd83612688565b6126d16126c9826126aa565b84845461262c565b825550505050565b600090565b6126e66126d9565b6126f18184846126b4565b505050565b5b818110156127155761270a6000826126de565b6001810190506126f7565b5050565b601f82111561275a5761272b816125fa565b6127348461260f565b81016020851015612743578190505b61275761274f8561260f565b8301826126f6565b50505b505050565b600082821c905092915050565b600061277d6000198460080261275f565b1980831691505092915050565b6000612796838361276c565b9150826002028217905092915050565b6127af826122d6565b67ffffffffffffffff8111156127c8576127c7611d19565b5b6127d282546125c9565b6127dd828285612719565b600060209050601f83116001811461281057600084156127fe578287015190505b612808858261278a565b865550612870565b601f19841661281e866125fa565b60005b8281101561284657848901518255600182019150602085019450602081019050612821565b86831015612863578489015161285f601f89168261276c565b8355505b6001600288020188555050505b505050505050565b7f4e487b7100000000000000000000000000000000000000000000000000000000600052603260045260246000fd5b60008190508160005260206000209050919050565b601f8211156128fd576128ce816128a7565b6128d78461260f565b810160208510156128e6578190505b6128fa6128f28561260f565b8301826126f6565b50505b505050565b61290b826120e4565b67ffffffffffffffff81111561292457612923611d19565b5b61292e82546125c9565b6129398282856128bc565b600060209050601f83116001811461296c576000841561295a578287015190505b612964858261278a565b8655506129cc565b601f19841661297a866128a7565b60005b828110156129a25784890151825560018201915060208501945060208101905061297d565b868310156129bf57848901516129bb601f89168261276c565b8355505b6001600288020188555050505b505050505050565b60006040820190506129e96000830185611c4f565b81810360208301526129fb8184612133565b90509392505050565b6000612a0f82611e44565b91507fffffffffffffffffffffffffffffffffffffffffffffffffffffffffffffffff8203612a4157612a40612537565b5b600182019050919050565b600081905092915050565b6000612a62826122d6565b612a6c8185612a4c565b9350612a7c818560208601612100565b80840191505092915050565b6000819050919050565b612aa3612a9e82611ff8565b612a88565b82525050565b6000612ab58285612a57565b9150612ac18284612a92565b6020820191508190509392505050565b612ada81611ff8565b82525050565b600060ff82169050919050565b612af681612ae0565b82525050565b6000608082019050612b116000830187612ad1565b612b1e6020830186612aed565b612b2b6040830185612ad1565b612b386060830184612ad1565b95945050505050565b600081905092915050565b6000612b57826120e4565b612b618185612b41565b9350612b71818560208601612100565b80840191505092915050565b6000612b898284612b4c565b915081905092915050565b7f535550504c494552000000000000000000000000000000000000000000000000600082015250565b6000612bca600883612b41565b9150612bd582612b94565b600882019050919050565b6000612beb82612bbd565b9150819050919050565b7f4d414e5546414354555245520000000000000000000000000000000000000000600082015250565b6000612c2b600c83612b41565b9150612c3682612bf5565b600c82019050919050565b6000612c4c82612c1e565b9150819050919050565b7f5452414e53504f52544552000000000000000000000000000000000000000000600082015250565b6000612c8c600b83612b41565b9150612c9782612c56565b600b82019050919050565b6000612cad82612c7f565b9150819050919050565b7f4449535452494255544552000000000000000000000000000000000000000000600082015250565b6000612ced600b83612b41565b9150612cf882612cb7565b600b82019050919050565b6000612d0e82612ce0565b9150819050919050565b7f52455441494c4552000000000000000000000000000000000000000000000000600082015250565b6000612d4e600883612b41565b9150612d5982612d18565b600882019050919050565b6000612d6f82612d41565b9150819050919050565b7f435553544f4d4552000000000000000000000000000000000000000000000000600082015250565b6000612daf600883612b41565b9150612dba82612d79565b600882019050919050565b6000612dd082612da2565b9150819050919050565b7f726563656976656420696e76616c696420656e7469747920726f6c6500000000600082015250565b6000612e10601c836120ef565b9150612e1b82612dda565b602082019050919050565b60006020820190508181036000830152612e3f81612e03565b905091905056fea2646970667358221220fd75ce1558a50499a2d13d64b8b230f893813297d77eecccb953a311135cf4a364736f6c634300080f0033",
  "immutableReferences": {},
  "source": "pragma solidity >=0.7.0 <0.9.0;\r\n\r\nlibrary CryptoSuite {\r\n    function splitSignature(bytes memory sig)\r\n        internal\r\n        pure\r\n        returns (\r\n            uint8 v,\r\n            bytes32 r,\r\n            bytes32 s\r\n        )\r\n    {\r\n        require(sig.length == 65);\r\n\r\n        assembly {\r\n            //  first 32bytes\r\n            r := mload(add(sig, 32))\r\n\r\n            //  next 32bytes\r\n            s := mload(add(sig, 64))\r\n\r\n            //  last 32bytes\r\n            v := byte(0, mload(add(sig, 96)))\r\n        }\r\n\r\n        return (v, r, s);\r\n    }\r\n\r\n    function recoverSigner(bytes32 message, bytes memory sig)\r\n        internal\r\n        pure\r\n        returns (address)\r\n    {\r\n        (uint8 v, bytes32 r, bytes32 s) = splitSignature(sig);\r\n        bytes memory prefix = \"\\x19Ethereum Signed Message:\\n32\";\r\n        bytes32 prefixHash = keccak256(abi.encodePacked(prefix, message));\r\n\r\n        return ecrecover(prefixHash, v, r, s);\r\n    }\r\n}\r\n\r\ncontract SupplyChain {\r\n    enum Role {\r\n        SUPPLIER,\r\n        MANUFACTURER,\r\n        TRANSPORTER,\r\n        DISTRIBUTER,\r\n        RETAILER,\r\n        CUSTOMER\r\n    }\r\n\r\n    enum ProductStatus {\r\n        MANUFACTURING,\r\n        MANUFACTURED,\r\n        IN_TRANSPORT,\r\n        STORED,\r\n        USED\r\n    }\r\n\r\n    struct Entity {\r\n        address id;\r\n        Role role;\r\n        uint256[] transactionIds;\r\n    }\r\n\r\n    struct Product {\r\n        uint256 id;\r\n        string name;\r\n        address manufacturer;\r\n        uint256[] goods; // poluproizvodi\r\n        uint256[] transactionIds;\r\n    }\r\n\r\n    struct Transaction {\r\n        uint256 id;\r\n        Entity issuer;\r\n        Entity receiver;\r\n        bytes signature;\r\n        ProductStatus status;\r\n    }\r\n\r\n    uint256 public constant MAX_CERTIFICATIONS = 20;\r\n\r\n    uint256[] public transactionIds;\r\n    uint256[] public productIds;\r\n\r\n    mapping(uint256 => Product) public products;\r\n    mapping(uint256 => Transaction) public transactions;\r\n    mapping(address => Entity) public entities;\r\n\r\n    event AddEntity(address entityId, string entityRole);\r\n    event AddProduct(uint256 productId, address indexed manufacturer);\r\n    event IssueTransaction(\r\n        address indexed issuer,\r\n        address indexed receiver,\r\n        uint256 transactionId\r\n    );\r\n    event GetTransactionsForEntity(\r\n        address indexed issuer,\r\n        uint256[] transactions\r\n    );\r\n\r\n    function addEntity(address _id, string memory _role) public {\r\n        Role role = unmarshalRole(_role);\r\n        uint256[] memory _transactionIds = new uint256[](MAX_CERTIFICATIONS);\r\n        Entity memory entity = Entity(_id, role, _transactionIds);\r\n        entities[_id] = entity;\r\n        emit AddEntity(entity.id, _role);\r\n    }\r\n\r\n    function unmarshalRole(string memory _role)\r\n        private\r\n        pure\r\n        returns (Role role)\r\n    {\r\n        bytes32 encodedRole = keccak256(abi.encodePacked(_role));\r\n        bytes32 encodedRole0 = keccak256(abi.encodePacked(\"SUPPLIER\"));\r\n        bytes32 encodedRole1 = keccak256(abi.encodePacked(\"MANUFACTURER\"));\r\n        bytes32 encodedRole2 = keccak256(abi.encodePacked(\"TRANSPORTER\"));\r\n        bytes32 encodedRole3 = keccak256(abi.encodePacked(\"DISTRIBUTER\"));\r\n        bytes32 encodedRole4 = keccak256(abi.encodePacked(\"RETAILER\"));\r\n        bytes32 encodedRole5 = keccak256(abi.encodePacked(\"CUSTOMER\"));\r\n\r\n        if (encodedRole == encodedRole0) {\r\n            return Role.SUPPLIER;\r\n        } else if (encodedRole == encodedRole1) {\r\n            return Role.MANUFACTURER;\r\n        } else if (encodedRole == encodedRole2) {\r\n            return Role.TRANSPORTER;\r\n        } else if (encodedRole == encodedRole3) {\r\n            return Role.DISTRIBUTER;\r\n        } else if (encodedRole == encodedRole4) {\r\n            return Role.RETAILER;\r\n        } else if (encodedRole == encodedRole5) {\r\n            return Role.CUSTOMER;\r\n        }\r\n\r\n        revert(\"received invalid entity role\");\r\n    }\r\n\r\n    function addProduct( string memory name, address manufacturer, uint256 semiProductId ) public returns (uint256) {\r\n        uint256[] memory _transactionIds = new uint256[](MAX_CERTIFICATIONS);\r\n        uint256[] memory _goods = new uint256[](MAX_CERTIFICATIONS);\r\n        uint256 id = productIds.length;\r\n\r\n        if (semiProductId != 100) {\r\n            _goods[0] = semiProductId;\r\n        }\r\n\r\n        Product memory product = Product(\r\n            id,\r\n            name,\r\n            manufacturer,\r\n            _goods,\r\n            _transactionIds\r\n        );\r\n\r\n        products[id] = product;\r\n        productIds.push(id);\r\n\r\n        emit AddProduct(product.id, product.manufacturer);\r\n        return id;\r\n    }\r\n\r\n    function issueTransaction(\r\n        address _issuer,\r\n        address _receiver,\r\n        string memory _status,\r\n        uint256 productId,\r\n        bytes memory signature\r\n    ) public returns (uint256) {\r\n        Entity memory issuer = entities[_issuer];\r\n        // require(issuer.mode == Mode.ISSUER);\r\n\r\n        Entity memory receiver = entities[_receiver];\r\n        // require(prover.mode == Mode.PROVER);\r\n\r\n        ProductStatus status = ProductStatus.MANUFACTURED;\r\n        // ProductStatus status = unmarshalStatus(_status);\r\n\r\n        uint256 id = transactionIds.length;\r\n        Transaction memory transaction = Transaction(\r\n            id,\r\n            issuer,\r\n            receiver,\r\n            signature,\r\n            status\r\n        );\r\n\r\n        transactionIds.push(transactionIds.length);\r\n        transactions[transactionIds.length - 1] = transaction;\r\n\r\n        emit IssueTransaction(_issuer, _receiver, transactionIds.length - 1);\r\n\r\n        return transactionIds.length - 1;\r\n    }\r\n\r\n    function unmarshalStatus(string memory _status)\r\n        private\r\n        pure\r\n        returns (ProductStatus status)\r\n    {\r\n        bytes32 encodedStatus = keccak256(abi.encodePacked(_status));\r\n        bytes32 encodedStatus0 = keccak256(abi.encodePacked(\"MANUFACTURING\"));\r\n        bytes32 encodedStatus1 = keccak256(abi.encodePacked(\"MANUFACTURED\"));\r\n        bytes32 encodedStatus2 = keccak256(abi.encodePacked(\"IN_TRANSPORT\"));\r\n        bytes32 encodedStatus3 = keccak256(abi.encodePacked(\"STORED\"));\r\n        bytes32 encodedStatus4 = keccak256(abi.encodePacked(\"USED\"));\r\n\r\n        if (encodedStatus == encodedStatus0) {\r\n            return ProductStatus.MANUFACTURING;\r\n        } else if (encodedStatus == encodedStatus1) {\r\n            return ProductStatus.MANUFACTURED;\r\n        } else if (encodedStatus == encodedStatus2) {\r\n            return ProductStatus.IN_TRANSPORT;\r\n        } else if (encodedStatus == encodedStatus3) {\r\n            return ProductStatus.STORED;\r\n        } else if (encodedStatus == encodedStatus4) {\r\n            return ProductStatus.USED;\r\n        }\r\n\r\n        revert(\"received invalid Product Status\");\r\n    }\r\n\r\n    function isMatchingSignature(\r\n        bytes32 message,\r\n        uint256 id,\r\n        address issuer\r\n    ) public view returns (bool) {\r\n        Transaction memory trans = transactions[id];\r\n        require(trans.issuer.id == issuer);\r\n\r\n        address recoveredSigner = CryptoSuite.recoverSigner(\r\n            message,\r\n            trans.signature\r\n        );\r\n\r\n        return recoveredSigner == trans.issuer.id;\r\n    }\r\n\r\n    // To record transaction id to the entity and to the product\r\n    // issuer.transactionIds[issuer.transactionIds.length] = transactionIds.length - 1;\r\n    // Product memory product = products[productId];\r\n    // product.transactionIds[product.transactionIds.length] = transactionIds.length - 1;\r\n\r\n    function getTransactionIdsForEntity(address _issuer)\r\n        public\r\n        view\r\n        returns (uint256[] memory)\r\n    {\r\n        Entity memory issuer = entities[_issuer];\r\n\r\n        uint256[] memory _transactionIds = new uint256[](MAX_CERTIFICATIONS);\r\n        uint256 numberOfTransactions = 0;\r\n        uint256 arrayLength = transactionIds.length;\r\n\r\n        for (uint256 i = 0; i < arrayLength; i++) {\r\n            if (transactions[transactionIds[i]].issuer.id == issuer.id) {\r\n                _transactionIds[numberOfTransactions] = transactionIds[i];\r\n                numberOfTransactions++;\r\n            }\r\n        }\r\n        // emit GetTransactionsForEntity(issuer.id, _transactionIds);\r\n\r\n        return _transactionIds;\r\n    }\r\n\r\n    function getSemiProductId(uint256 productId) public view returns (uint256 id) {\r\n        Product memory product = products[productId];\r\n        return product.goods[0];\r\n    }\r\n\r\n\r\n\r\n\r\n}\r\n",
  "sourcePath": "C:\\Users\\Dusan\\Desktop\\Podaci\\MMKlab\\Blockchain\\Smart Contracts Examples\\Project SupplyChain 01\\contracts\\SupplyChain.sol",
  "compiler": {
    "name": "solc",
    "version": "0.8.15+commit.e14f2714.Emscripten.clang"
  },
  "schemaVersion": "3.4.7",
  "updatedAt": "2022-06-29T14:40:14.389Z",
  "devdoc": {
    "kind": "dev",
    "methods": {},
    "version": 1
  },
  "userdoc": {
    "kind": "user",
    "methods": {},
    "version": 1
  }
}